{
  "_format": "hh-sol-artifact-1",
  "contractName": "Assessment",
  "sourceName": "contracts/Assessment.sol",
  "abi": [
    {
      "inputs": [
        {
          "internalType": "uint256",
          "name": "initBalance",
          "type": "uint256"
        }
      ],
      "stateMutability": "payable",
      "type": "constructor"
    },
    {
      "inputs": [
        {
          "internalType": "uint256",
          "name": "balance",
          "type": "uint256"
        },
        {
          "internalType": "uint256",
          "name": "withdrawAmount",
          "type": "uint256"
        }
      ],
      "name": "InsufficientBalance",
      "type": "error"
    },
    {
      "anonymous": false,
      "inputs": [
        {
          "indexed": false,
          "internalType": "uint256",
          "name": "amount",
          "type": "uint256"
        }
      ],
      "name": "Deposit",
      "type": "event"
    },
    {
      "anonymous": false,
      "inputs": [
        {
          "indexed": false,
          "internalType": "uint256",
          "name": "pin",
          "type": "uint256"
        }
      ],
      "name": "EnterPin",
      "type": "event"
    },
    {
      "anonymous": false,
      "inputs": [
        {
          "indexed": false,
          "internalType": "uint256",
          "name": "amount",
          "type": "uint256"
        }
      ],
      "name": "Withdraw",
      "type": "event"
    },
    {
      "inputs": [],
      "name": "accountHolder",
      "outputs": [
        {
          "internalType": "string",
          "name": "",
          "type": "string"
        }
      ],
      "stateMutability": "view",
      "type": "function"
    },
    {
      "inputs": [],
      "name": "accountOwner",
      "outputs": [
        {
          "internalType": "string",
          "name": "",
          "type": "string"
        }
      ],
      "stateMutability": "pure",
      "type": "function"
    },
    {
      "inputs": [],
      "name": "balance",
      "outputs": [
        {
          "internalType": "uint256",
          "name": "",
          "type": "uint256"
        }
      ],
      "stateMutability": "view",
      "type": "function"
    },
    {
      "inputs": [
        {
          "internalType": "uint256",
          "name": "age",
          "type": "uint256"
        }
      ],
      "name": "checkEligibility",
      "outputs": [
        {
          "internalType": "string",
          "name": "",
          "type": "string"
        }
      ],
      "stateMutability": "pure",
      "type": "function"
    },
    {
      "inputs": [
        {
          "internalType": "uint256",
          "name": "_amount",
          "type": "uint256"
        }
      ],
      "name": "deposit",
      "outputs": [],
      "stateMutability": "payable",
      "type": "function"
    },
    {
      "inputs": [
        {
          "internalType": "uint256",
          "name": "pin",
          "type": "uint256"
        }
      ],
      "name": "enterPin",
      "outputs": [
        {
          "internalType": "uint256",
          "name": "",
          "type": "uint256"
        }
      ],
      "stateMutability": "pure",
      "type": "function"
    },
    {
      "inputs": [],
      "name": "getBalance",
      "outputs": [
        {
          "internalType": "uint256",
          "name": "",
          "type": "uint256"
        }
      ],
      "stateMutability": "view",
      "type": "function"
    },
    {
      "inputs": [],
      "name": "owner",
      "outputs": [
        {
          "internalType": "address payable",
          "name": "",
          "type": "address"
        }
      ],
      "stateMutability": "view",
      "type": "function"
    },
    {
      "inputs": [
        {
          "internalType": "uint256",
          "name": "_withdrawAmount",
          "type": "uint256"
        }
      ],
      "name": "withdraw",
      "outputs": [],
      "stateMutability": "nonpayable",
      "type": "function"
    }
  ],
  "bytecode": "0x6080604052604051610aac380380610aac833981810160405281019061002591906100ad565b336000806101000a81548173ffffffffffffffffffffffffffffffffffffffff021916908373ffffffffffffffffffffffffffffffffffffffff16021790555080600181905550506100da565b600080fd5b6000819050919050565b61008a81610077565b811461009557600080fd5b50565b6000815190506100a781610081565b92915050565b6000602082840312156100c3576100c2610072565b5b60006100d184828501610098565b91505092915050565b6109c3806100e96000396000f3fe6080604052600436106100865760003560e01c80638da5cb5b116100595780638da5cb5b14610147578063927c2e0414610172578063b69ef8a8146101af578063b6b55f25146101da578063be546079146101f657610086565b806312065fe01461008b5780632e1a7d4d146100b6578063674ddb53146100df5780637b39fed61461010a575b600080fd5b34801561009757600080fd5b506100a0610221565b6040516100ad9190610602565b60405180910390f35b3480156100c257600080fd5b506100dd60048036038101906100d8919061064e565b61022b565b005b3480156100eb57600080fd5b506100f461037c565b604051610101919061070b565b60405180910390f35b34801561011657600080fd5b50610131600480360381019061012c919061064e565b6103b9565b60405161013e919061070b565b60405180910390f35b34801561015357600080fd5b5061015c610421565b604051610169919061076e565b60405180910390f35b34801561017e57600080fd5b506101996004803603810190610194919061064e565b610445565b6040516101a69190610602565b60405180910390f35b3480156101bb57600080fd5b506101c461044f565b6040516101d19190610602565b60405180910390f35b6101f460048036038101906101ef919061064e565b610455565b005b34801561020257600080fd5b5061020b61055b565b604051610218919061070b565b60405180910390f35b6000600154905090565b60008054906101000a900473ffffffffffffffffffffffffffffffffffffffff1673ffffffffffffffffffffffffffffffffffffffff163373ffffffffffffffffffffffffffffffffffffffff16146102b9576040517f08c379a00000000000000000000000000000000000000000000000000000000081526004016102b0906107fb565b60405180910390fd5b6000600154905081600154101561030b57600154826040517fcf47918100000000000000000000000000000000000000000000000000000000815260040161030292919061081b565b60405180910390fd5b816001600082825461031d9190610873565b9250508190555081816103309190610873565b60015414610341576103406108a7565b5b7f5b6b431d4476a211bb7d41c20d1aab9ae2321deee0d20be3d9fc9b1093fa6e3d826040516103709190610602565b60405180910390a15050565b60606040518060400160405280600d81526020017f4e494c45534820534841524d4100000000000000000000000000000000000000815250905090565b6060601282106103e35760405180606001604052806023815260200161096b60239139905061041c565b6040518060400160405280601f81526020017f21594f552041524520554e4445522d414745204e4f5420454c494749424c450081525090505b919050565b60008054906101000a900473ffffffffffffffffffffffffffffffffffffffff1681565b6000819050919050565b60015481565b6000600154905060008054906101000a900473ffffffffffffffffffffffffffffffffffffffff1673ffffffffffffffffffffffffffffffffffffffff163373ffffffffffffffffffffffffffffffffffffffff16146104ea576040517f08c379a00000000000000000000000000000000000000000000000000000000081526004016104e1906107fb565b60405180910390fd5b81600160008282546104fc91906108d6565b92505081905550818161050f91906108d6565b600154146105205761051f6108a7565b5b7f4d6ce1e535dbade1c23defba91e23b8f791ce5edc0cc320257a2b364e4e384268260405161054f9190610602565b60405180910390a15050565b6002805461056890610939565b80601f016020809104026020016040519081016040528092919081815260200182805461059490610939565b80156105e15780601f106105b6576101008083540402835291602001916105e1565b820191906000526020600020905b8154815290600101906020018083116105c457829003601f168201915b505050505081565b6000819050919050565b6105fc816105e9565b82525050565b600060208201905061061760008301846105f3565b92915050565b600080fd5b61062b816105e9565b811461063657600080fd5b50565b60008135905061064881610622565b92915050565b6000602082840312156106645761066361061d565b5b600061067284828501610639565b91505092915050565b600081519050919050565b600082825260208201905092915050565b60005b838110156106b557808201518184015260208101905061069a565b60008484015250505050565b6000601f19601f8301169050919050565b60006106dd8261067b565b6106e78185610686565b93506106f7818560208601610697565b610700816106c1565b840191505092915050565b6000602082019050818103600083015261072581846106d2565b905092915050565b600073ffffffffffffffffffffffffffffffffffffffff82169050919050565b60006107588261072d565b9050919050565b6107688161074d565b82525050565b6000602082019050610783600083018461075f565b92915050565b7f596f7520617265206e6f7420746865206f776e6572206f66207468697320616360008201527f636f756e74000000000000000000000000000000000000000000000000000000602082015250565b60006107e5602583610686565b91506107f082610789565b604082019050919050565b60006020820190508181036000830152610814816107d8565b9050919050565b600060408201905061083060008301856105f3565b61083d60208301846105f3565b9392505050565b7f4e487b7100000000000000000000000000000000000000000000000000000000600052601160045260246000fd5b600061087e826105e9565b9150610889836105e9565b92508282039050818111156108a1576108a0610844565b5b92915050565b7f4e487b7100000000000000000000000000000000000000000000000000000000600052600160045260246000fd5b60006108e1826105e9565b91506108ec836105e9565b925082820190508082111561090457610903610844565b5b92915050565b7f4e487b7100000000000000000000000000000000000000000000000000000000600052602260045260246000fd5b6000600282049050600182168061095157607f821691505b6020821081036109645761096361090a565b5b5091905056fe594f552041524520454c494749424c4520464f522043525950544f2d54524144494e47a2646970667358221220d84ae36684e6176b522ee49b51e6c74078388acc3c623f559cbb663f1c9c6ded64736f6c63430008110033",
  "linkReferences": {},
  "deployedLinkReferences": {}
}